8=FIX.4.0|9=123|35=D|34=1234|49=BANZAI|52=20230823-10:00:00|56=EXEC|11=123456789|55=AAPL|21=1|38=100|40=1|54=1|10=166|